:020000040800F2
:1000000000100020C5120008111300081113000889
:1000100000000000000000000000000000000000E0
:1000200000000000000000000000000011130008A4
:100030000000000000000000111300081113000868
:100040001113000811130008111300081113000800
:1000500011130008111300081113000811130008F0
:1000600011130008111300081113000811130008E0
:1000700011130008111300081113000811130008D0
:10008000111300081113000800000000050B000800
:1000900011130008111300081113000811130008B0
:1000A000111300081113000811130008810A000839
:1000B00011130008000000001113000800000000E8
:1000C0005FF808F1F0B5244B902789B00025012690
:1000D0000193032301ACFF05381C211C63712671B9
:1000E000A57101F02FFA8020311C400100F0EEF9DB
:1000F000A02301939D3B6371381C013B211C23719C
:10010000E671A57101F01EFA381C2A1C072101F0C6
:100110006BFA2A1C381C052101F066FA202303A97A
:100120008B81E133FF334B810C4B0D4C0B8007234C
:100130000B82E023DB008B808223201C5B004B8042
:10014000CD81CD800D8101F0E5F8201C311C01F03E
:100150000BF909B0F0BDC0461060000000C0FFFF01
:100160000030014038B590258024ED05A401281CFD
:10017000211C01F037FAC82000F0E4F8281C211CEB
:1001800001F02EFA38BD000010B5041C0848022109
:1001900001F0F5F80028F9D00548211C01F0EDF830
:1001A0000348802101F0EBF80028F9D110BDC046CA
:1001B0000030014038B59024051CE405201C1021B6
:1001C00001F010FA281CFFF7DFFF201C102101F0BE
:1001D00007FA38BD08B5FFF775FFFFF7C3FF90209A
:1001E0008021C005C90101F0FDF92120FFF7E2FFE0
:1001F000B920FFF7DFFF0620FFF7DCFF1420FFF731
:10020000D9FF2020FFF7D6FF0C20FFF7D3FF08BD52
:1002100010B58021041C9020C901C00501F0E0F94F
:10022000201CFFF7C7FF10BD10B58021041C9020D3
:10023000C901C00501F0D6F9201CFFF7BBFF10BDB6
:1002400038B5002810D0602801D92038C0B2062463
:1002500000252038C0B24443044B1B19585D0135BA
:10026000FFF7D6FF062DF7D138BDC046F02A0008AB
:1002700010B5041C2078002803D0FFF7E1FF0134FB
:10028000F8E710BD08B5FFF7C3FF08BD10B50C1C9B
:100290008038C0B24034FFF7C7FFE0B2FFF7C4FFB9
:1002A00010BD0000F7B50F1C0192092801D93038A4
:1002B000C0B23023002443430093009B25015D1905
:1002C000019B381C1919C9B2FFF7E0FF0026ADB237
:1002D000064AAB199BB20632D05C0136FFF798FF95
:1002E000102EF5D10134032CE7D1F7BD702C000896
:1002F000F8B5051C0E1C171C041C611B0901207895
:100300007118C9B2002804D03A1CFFF7CBFF0134A2
:10031000F3E7F8BD002038B5011CFFF7B7FF06244E
:100320005425013D0020EDB2FFF772FF002DF8D1FA
:10033000013CE4B2002CF3D1201C211CFFF7A6FFE6
:1003400038BD00000121094B1B885843084B013878
:10035000586099601A680A431A601968044AC90308
:10036000FBD5012113688B431360704726000020E2
:1003700010E000E00421084BC0081A688A431A60A4
:100380001A6802398A431A60044B1870FA239B00DA
:100390005843034B1880704710E000E0280000200D
:1003A000260000200121094B1B785843084B0138D7
:1003B000586099601A680A431A601968044AC903A8
:1003C000FBD5012113688B43136070472800002080
:1003D00010E000E00C2370B5304D041C6A68134037
:1003E000042B01D0082B02D02D4B236011E06E6846
:1003F0006B68B602360F0236DB0301D4294806E0EB
:100400000F23E96A26481940013101F009FA4643F1
:10041000266021686B680A1C23481B061B0FC35CFF
:10042000DA40131C62606A685205520F825CD34046
:10043000A3602A6BD20501D41C4A06E0174A526811
:10044000520401D45A0800E09A08E2602A6B52066E
:1004500001D4174A01E08022120222612A6BD206DF
:1004600002D40F4A626100E0616103222D6B0B48E8
:10047000154211D0036B1340012B01D1A1610CE097
:10048000036B1340022B02D180231B0204E0036B99
:100490001340032B01D1024BA36170BD0010024039
:1004A00000127A0000093D0000000020809FD50066
:1004B00012800000044B5A69002902D01043586191
:1004C00001E082435A61704700100240044B9A6970
:1004D000002902D01043986101E082439A6170477D
:1004E00000100240044BDA69002902D01043D861A1
:1004F00001E08243DA6170470010024008B503480A
:10050000022101F067F840B208BDC046000400486F
:1005100037B580200121C002FFF7CCFF6A460323D4
:100520000224084D5371281C023B694613719371D4
:10053000D371009401F006F8281C211C01F050F83A
:1005400037BDC0460004004810B50221104801F034
:1005500049F8FA204000FFF725FF0D48022101F07D
:100560003FF80820FFF71EFF5024FFF7C7FF0028C1
:1005700005D1FFF7C3FF0028FBD0012406E0013CB2
:100580000120E4B2FFF70EFF002CEED1201C10BDBD
:100590000004004810B50221041C0C4801F022F8A8
:1005A000002C08D00820FFF7FDFE0848022101F0CA
:1005B00017F85A2007E05A20FFF7F4FE03480221FB
:1005C00001F00EF80820FFF7EDFE10BD0004004812
:1005D00038B5051C08240120013C2840E4B2FFF78F
:1005E000D9FF6D08002CF6D138BD000010B50B4CBA
:1005F0000221201C00F0F6FF0220FFF7D3FE0221AB
:10060000201C00F0EDFF0820FFF7CCFEFFF776FF7F
:10061000041C5A20FFF7C6FEE0B210BD00040048DB
:1006200038B5082500246408FFF7E0FF002803D050
:1006300080235B421C43E4B2013DEDB2002DF2D1B8
:10064000201C38BD08B5FFF77FFF002803D0CC2061
:10065000FFF7BEFF012008BD802030B580038BB0BE
:100660000121FFF73FFFC0239025DB000193032307
:10067000012401A9ED054B71281C013B0B718C7104
:10068000CC7100F05FFF281C0921042200F0ACFFB0
:10069000281C0A21042200F0A7FF80220023084D15
:1006A00012020892074A281C03A906930392099391
:1006B00000F06CFE281C211C00F09AFE0BB030BD2F
:1006C00000540040531A900013B5041C80211F48A9
:1006D000090200F0ACFE0128F8D080239B010093B2
:1006E0001A48EE210122002300F08CFE1748022157
:1006F00000F09DFE0028F9D01448211C00F092FE65
:100700001248402100F093FE0028F9D090239B016D
:10071000009380230D48EE2101229B0400F072FE1D
:100720000A48042100F083FE0028F9D0074800F0B1
:100730007BFE041C0548202100F079FE0028F9D03A
:100740000248202100F079FE201C16BD0054004014
:1007500038B5041CFFF7B8FF0134051C0120FFF772
:10076000F1FDE0B2FFF7B0FF2D02281838BD000000
:1007700037B5051C0C1C80211E48090200F057FEED
:100780000128F8D080239B01009380231948EE2193
:1007900001225B0400F036FE1648022100F047FEFD
:1007A0000028F9D01348291C00F03CFE1148802194
:1007B00000F03DFE0028F9D00023009380230D486F
:1007C000EE2101229B0400F01DFE0A48022100F0E8
:1007D0002EFE0028F9D00748211C00F023FE054812
:1007E000202100F024FE0028F9D00248202100F04A
:1007F00024FE37BD0054004008B52E21F420FFF739
:10080000B7FF0720FFF79EFDF620FFF7A1FF08BD09
:1008100034218301194370B5C9B2051CF420FFF7D8
:10082000A7FF2320FFF78EFDF620FFF74DFF061CE4
:100830000120FFF787FDF720FFF746FF041C01208A
:10084000FFF780FDF820FFF73FFF031C2402300470
:100850002043184308235D1BE84070BD10B5FFF727
:10086000CBFF0E4B0E4A1B881288C31A5343D8176E
:10087000400CC0180B4BC4130020185E0A4BC0027A
:100880000021595E611801F05BF8084B20181860D0
:100890000830C3171B0F1818001110BD30000020BE
:1008A00032000020440000202C00002034000020F2
:1008B000F8B5041CFFF7ACFF244B254A1B682549FB
:1008C0009B181A1C0025495F5A4359434E1322496D
:1008D0000025495F151369438025091471180231F9
:1008E0002D02891049191D4D2D8869431C4DC90BD6
:1008F0000026AE5F1B4DB6000027ED5F6A431A4D20
:10090000D2150027ED5F6B43DD125219B318A340D7
:10091000164A023322419B10C01A5043002803DBC1
:10092000400000F07DFF02E000F07AFF400003127B
:100930005B430F4A534319140E4B43431A148B184D
:100940000D4A9B181B11C018F8BDC046340000208A
:1009500060F0FFFF3E000020420000203800002031
:100960002E000020400000203C00002050C300006A
:10097000DE0B000043E3FFFFCF0E000008B5AA2006
:10098000FFF7E6FE1A4B1880AC20FFF7E1FE194B8B
:100990001880AE20FFF7DCFE174B1880B020FFF761
:1009A000D7FE164B1880B220FFF7D2FE144B1880EA
:1009B000B420FFF7CDFE134B1880B620FFF7C8FE1A
:1009C000114B1880B820FFF7C3FE104B1880BA20D7
:1009D000FFF7BEFE0E4B1880BC20FFF7B9FE0D4B93
:1009E0001880BE20FFF7B4FE0B4B188008BDC04630
:1009F0002E0000203C0000203E0000203800002097
:100A00003200002030000020420000204000002082
:100A10003A000020440000202C00002008B5FFF719
:100A20001BFEFFF7ABFFFFF773FD08BD012108B503
:100A30000A1C084800F0D1FE07480849012200F0CE
:100A400046FE8022064B12051A60802212031A60AD
:100A500062B608BD002000400038014005010500D5
:100A600000E100E010B5054C0021201C00F0AAFEBA
:100A7000201C012100F0A8FE10BDC046002000404F
:100A800038B51648164900F03FFE00281BD0134821
:100A9000134900F056FE134C1048258800F013FE51
:100AA000114BADB2C0B25855238801339BB223809D
:100AB0002388F92B01D9002323800C4B1B78022BB0
:100AC00001D0FFF7CFFF0548094900F01DFE0028BF
:100AD00003D00248064900F034FE38BD003801401A
:100AE00005010500400100204600002020000020F4
:100AF0000601060008B50248002100F065FE08BDA9
:100B00000020004008B50848012100F06FFE0028D1
:100B100008D00548012100F074FEFFF7EBFF012229
:100B2000024B1A7008BDC046002000402000002083
:100B300081B208B5044800F0C2FD0348402100F02E
:100B4000DDFD0028F9D008BD003801400020F0B5D7
:100B5000011C85B0FFF79AFB00210420FFF796FBEC
:100B60002320FFF76DFB02210420FFF78FFB0820F5
:100B7000FFF788FB0C20FFF785FB3E20FFF782FB89
:100B80000C20FFF77FFB0820FFF77CFB03210420EC
:100B9000FFF77CFB1020FFF775FB3020FFF772FB9F
:100BA0007C20FFF76FFB3020FFF76CFB1020FFF776
:100BB00069FB00200421FFF769FB00245A4BE05C2D
:100BC0000134FFF75FFB0C2CF8D105210420FFF75F
:100BD0005DFB5220FFF734FB4820FFF731FB002577
:100BE0002C01E4B2261C1436F6B2301C0021FFF7AB
:100BF0004DFB05236B434D4F02A9D85D0A22C0B2BD
:100C0000019301F0E9FB02A8FFF732FB301C02213F
:100C1000FFF73CFB019BFB185B7801975BB2002B55
:100C20000EDA201C11300221C0B2FFF72FFB082082
:100C3000FFF728FB0820FFF725FB0020FFF722FB2A
:100C400005276F43019B02A9DF1978780A2240B279
:100C5000C317C018584001F0BFFB02A8FFF708FBFC
:100C6000301C0321FFF712FBBB785BB2002B0DDABF
:100C700011340321E0B2FFF709FB0820FFF702FB64
:100C80000820FFF7FFFA0020FFF7FCFA0524271CD5
:100C90006F43019B0A22DF19B87802A940B2C3173B
:100CA000C018584001F098FB02A8FFF7E1FA301C89
:100CB0000421FFF7EBFA38790A2202A9C0B201F049
:100CC0008BFB02A8FFF7D4FA301C211CFFF7DEFAD9
:100CD000F87802A90A22C0B201F07EFB013502A811
:100CE000FFF7C6FA042D00D07AE700200121FFF7B4
:100CF000CDFA4F34013C1820E4B2FFF7C3FA002CC0
:100D0000F8D110250024211C281C0134FFF7BEFA5D
:100D1000E4B2FF20FFF7B6FA072CF4D11035EDB29C
:100D2000502DEFD105B0F0BD562E00084701002030
:100D30001FB5802001218002FFF7BCFB802001212C
:100D4000C001FFF7C3FB802001214000FFF7CAFB71
:100D5000064B01A90B80002305484B800B816333B0
:100D60004B6000F0F3FC05B000BDC0467FBBFFFF49
:100D700000200040F0B59025ED0589B0281C022127
:100D8000012200F031FC281C0321012200F02CFC80
:100D9000684600F013FC04236A460024012602275B
:100DA0000093281C013B6946537117719471D671E9
:100DB00000F0C8FB082300936B466946281C1F718E
:100DC000DC7100F0BFFB684600F0F8FB40236A4688
:100DD0000093281C3D3B6946537194711671D6717E
:100DE00000F0B0FBE1235B0202930C230394049414
:100DF00005940794054C02A9201C069300F006FCFC
:100E0000201C311C00F052FC09B0F0BD003801403C
:100E100010B5FFF717FCFF23002813D04420FFF77D
:100E2000D7FBC820FFF78EFAFFF70CFCBE20FFF7B8
:100E3000CFFBFFF7F5FB041CFFF7F2FB00020443B6
:100E40002411E3B258B210BD10B5FFF707FD0A2117
:100E500000F076FD094CC0B220700320FFF728FD9A
:100E600001F048F9064900F075FE00F05BFE80B223
:100E70006080FFF7CDFF207110BDC046100000203C
:100E8000BCC7F53B002300220349CA540133FA2BA7
:100E9000F9D1024B1A807047460000204001002023
:100EA000F8B5264C2378012B46D1254B1B889BB2E5
:100EB000244DF92B03D80022EA540133F7E7224EE0
:100EC000281C311C0C3101F0E3FB311C002821D01F
:100ED0000379032B1ED805225A4347791B4E975599
:100EE00082792D2A02D1C2795242C27105225A4317
:100EF000C779B2185770027A2D2A02D1427A52422B
:100F0000427205225343477A827AF3189F70DA704F
:100F1000C27A1A711131281C01F0BAFB002807D0DF
:100F20000379417963700A4B5A1D59718379537063
:100F3000FFF7A8FF00232370F8BDC0462000002063
:100F40004001002046000020562E000847010020E6
:100F50001000002010B50D4B9C78E4B2002C03D09B
:100F6000012C12D1002408E0094B1633E05C013457
:100F7000FFF788F9082CF7D107E0054B1E33E05C3A
:100F80000134FFF77FF9082CF7D110BD20000020B5
:100F9000562E000873B5FFF7BDF9454DE878C0B28D
:100FA000032800D983E000F031FC0211797C414B29
:100FB000694618790A2240B201F00EFA68461021FB
:100FC0000122FFF795F9442002216CE0394C694673
:100FD00020790A2240B201F0FFF900200121FFF739
:100FE00055F923792B205BB2002B00DC2D20FFF775
:100FF00027F9237969465BB2DA179B185340DBB2B5
:10100000237120790A2240B201F0E6F900226846F5
:101010000621FFF76DF900212820FFF737F943205B
:10102000FFF70EF9608869460A2280B201F0D4F910
:10103000684600210322FFF75BF90026311C3020AF
:101040000136FFF723F9F6B2FF20FFF71BF9062E52
:10105000F4D1207869460A2240B201F0BDF900229D
:1010600068463421FFF744F934200321FFF70EF9D5
:1010700068780A226946C0B201F0AEF96846FFF707
:10108000F7F80D48FFF7F4F804213420FFF7FEF8D5
:10109000601DFFF7EDF84B20052104E0FFF756FD3A
:1010A00005E00020011CFFF7F1F8FFF753FF73BDC7
:1010B0002000002010000020112F000810B5041C93
:1010C000002C06D0FA20013C8000FFF73BF9E4B287
:1010D000F6E710BDF8B5041CFFF7D4FE02231F4E3F
:1010E00033702078002803D0FFF722FD0134F8E7A1
:1010F0000D30FFF71DFD0D20FFF71AFD0A20FFF749
:1011000017FDC820FFF71EF90624154D154F291CA1
:10111000381C263101F0BCFA002816D1291C381CD5
:10112000293101F0B5FA002811D1291C381C2F31C2
:1011300001F0AEFA00280CD1013C0130E4B2FFF717
:10114000BDFF002CE1D1042004E0012002E00320D7
:1011500000E0022000233370F8BDC04620000020CC
:10116000562E000846000020044808B53430FFF72A
:10117000B1FF013843425841C0B208BD562E0008A5
:1011800038B5124C201C3E30FFF7A4FF104D01284B
:1011900019D1201C4130FFF79DFF012813D1201CDD
:1011A0004D30FFF797FF01280DD1201C5930FFF774
:1011B00091FF012807D1201C7A30FFF78BFF01280F
:1011C00001D1A87001E00023AB7038BD562E000895
:1011D0002000002010B59024E405201C402100F0E0
:1011E00001FA0120FFF76AFF4021201C00F0F8F906
:1011F0000220FFF763FF04480E30FFF76BFF01206A
:10120000FFF75CFF10BDC046D62E000810B500F0F9
:1012100067F93020FFF7AEF8FFF78AFDFFF7FEFB16
:10122000FEF7D8FFFFF776F800200221FFF72EF82F
:1012300021481530FFF71CF800230522591C5343A1
:1012400000221E48CCB21C54C3185A709A701A71EE
:101250000B1E042BF1D1FFF715FEFFF7E7FBFFF79D
:1012600089FDFFF7B7FFFFF7EFFD154CE37801337A
:10127000DBB2E370E378022B01D90123E370FFF7BF
:101280000FFEFFF787FE23790133DBB22371237949
:10129000092B09D900232371A378002B01D1FFF773
:1012A0006FFFFFF761FFA070E3780720022B00D0EB
:1012B0000220FFF703FFD6E7D62E000847010020E3
:1012C000200000200C488546002103E00B4B5B58B2
:1012D000435004310A480B4B42189A42F6D30A4A4B
:1012E00002E0002313600432084B9A42F9D300F065
:1012F000F7F8FFF78BFFFEE700100020802F0008B3
:101300000000002020000020200000205C010020C0
:10131000FEE70000C12310B504889B01CA891C4068
:101320000B881343CA8813430A8913434A8913431A
:101330008A891343234303808288094B13408A8898
:101340001343042283800B8A0382038893434A88D1
:1013500013430380828B034B1340838310BDC0462D
:10136000FFF0FFFFFFF7FFFF40220388002901D0B5
:10137000134300E093430380704701737047008973
:101380000840411E8841C0B27047000010B50124DA
:101390000368A34303600268124B13408A68120279
:1013A00013434A68134303600F4A0B681A400261F3
:1013B00003688A692343036000238360C3600B6969
:1013C000134380228360836812021343836003689F
:1013D000CA68134303604268044B13404A691343CD
:1013E000436010BDFFE0CF00FFFFFFF0FF7FFF076E
:1013F00001220368002901D0134300E093430360F6
:101400007047000030B54468054D89052C40039DA8
:10141000890D2C4323430B4312041343436030BD17
:10142000009800FC81627047406AC0B270478069D2
:101430000840411E8841C0B27047C161704700003A
:101440000023802182B000930193224B49021A6845
:101450000A431A6080221968920211400191009992
:10146000013100910199002904D1A0210098C901FE
:101470008842EFD119680A4000D001220192019AF6
:10148000012A25D11121144A11605A685A605A68FC
:101490005A605968114A0A4088215A605A684903BB
:1014A0000A4380215A601A6849040A431A6019687D
:1014B000084A8901FBD50320516881435160516876
:1014C0000138014351600C2259680A40082AFAD1B8
:1014D00002B070470010024000200240FFFFC0FF32
:1014E000012108B5114B1A680A431A605868104A5E
:1014F00002405A6018680F4A02401A6018680E4A83
:1015000002401A6058680D4A02400F205A60DA6A99
:101510008243DA62186B0A4A02401A635A6B8A43A2
:101520005A6300229A60FFF78BFF08BD001002404B
:101530000CB8FF08FFFFF6FEFFFFFBFFFFFFC0FF39
:10154000ACFEFFFFF7B500220B6801930123934027
:10155000019E1E409E422DD10C79631E012B16D890
:101560005700BC4603276546AF408368BB43836092
:101570004B798768AB403B4383608388B343838068
:101580008E798788331C93403B439BB2838003232F
:101590005600B340DB43B44007681F40076007684C
:1015A0003C430460C4682340C360CB79C468B34043
:1015B0002343C3600132102AC8D1F7BD044B012276
:1015C00003600023427103718371C3717047C04689
:1015D000FFFF0000008A0840411E8841C0B27047EA
:1015E0008161704701857047072310B50F240B40B8
:1015F0009B009A409C40131CC90889004018016A4E
:10160000A1430162016A0B43036210BD0122F0B5E0
:101610000D1C036889B09343036042681E4B041C91
:1016200013408A681343436002681C4B1A40CB681E
:1016300049680B4329690B43134303608268184BC5
:1016400013406A691343836001A8FEF7C3FE154B7C
:10165000079F9C4200D0039F23682E681B0400D57F
:101660007F00311C381C00F0DBF8311C051C381CD5
:1016700000F05CF900237608B1425B41ED18236865
:101680001B0404D5084B2A07520F1D401543ADB269
:10169000A58109B0F0BDC046FFCFFFFFF3E9FFFF12
:1016A000FFFCFFFF00380140F0FF0000012203684B
:1016B000002901D0134300E0934303607047C9053C
:1016C000C90D01857047808CC005C00D704701238E
:1016D00010B58CB2C9B28B40240A191C022C01D15E
:1016E000043002E0032C00D108300368002A02D045
:1016F0001943016001E08B43036010BDC0690840DD
:10170000411E8841C0B27047012310B58AB2CCB2E5
:10171000120AA340012A01D1026804E0022A01D181
:10172000426800E082681340C2690020834207D00B
:101730000123090C8B401A40101C411E8841C0B285
:1017400010BD0123090C8B400362704730B503883C
:10175000154C9BB2A04206D08022D205904202D006
:10176000124A904203D1702293434A881343104A8D
:10177000904203D00F4A0D8913402B4303804B68DE
:10178000C3620B880385A04208D00B4B984205D05A
:101790000A4B984202D00A4B984201D18B7A0386B9
:1017A0000123838230BDC046002C0140000400406C
:1017B00000100040FFFCFFFF0040014000440140DA
:1017C000004801404162704701220388002901D08E
:1017D000134300E09343038070478389002A02D0BB
:1017E0001943818101E08B4383817047028A838999
:1017F00000209BB20A4203D01940481E8141C8B262
:101800007047C94389B201827047000002B4714633
:1018100049084900095C49008E4402BC7047C04633
:10182000002243088B4274D303098B425FD3030A1F
:101830008B4244D3030B8B4228D3030C8B420DD332
:10184000FF22090212BA030C8B4202D312120902C0
:1018500065D0030B8B4219D300E0090AC30B8B42FE
:1018600001D3CB03C01A5241830B8B4201D38B03AC
:10187000C01A5241430B8B4201D34B03C01A524151
:10188000030B8B4201D30B03C01A5241C30A8B4294
:1018900001D3CB02C01A5241830A8B4201D38B027F
:1018A000C01A5241430A8B4201D34B02C01A524123
:1018B000030A8B4201D30B02C01A5241CDD2C30995
:1018C0008B4201D3CB01C01A524183098B4201D311
:1018D0008B01C01A524143098B4201D34B01C01AFC
:1018E000524103098B4201D30B01C01A5241C30874
:1018F0008B4201D3CB00C01A524183088B4201D3E3
:101900008B00C01A524143088B4201D34B00C01ACE
:101910005241411A00D20146524110467047FFE73A
:1019200001B5002000F0FCF802BDC0460029F7D048
:1019300003B5FFF775FF0EBC4243891A1847C0462E
:1019400003460B437FD4002243088B4274D3030920
:101950008B425FD3030A8B4244D3030B8B4228D3C1
:10196000030C8B420DD3FF22090212BA030C8B42E7
:1019700002D31212090265D0030B8B4219D300E087
:10198000090AC30B8B4201D3CB03C01A5241830B0C
:101990008B4201D38B03C01A5241430B8B4201D3BC
:1019A0004B03C01A5241030B8B4201D30B03C01AE5
:1019B0005241C30A8B4201D3CB02C01A5241830A5F
:1019C0008B4201D38B02C01A5241430A8B4201D38E
:1019D0004B02C01A5241030A8B4201D30B02C01AB8
:1019E0005241CDD2C3098B4201D3CB01C01A52411F
:1019F00083098B4201D38B01C01A524143098B42A8
:101A000001D34B01C01A524103098B4201D30B0190
:101A1000C01A5241C3088B4201D3CB00C01A5241B5
:101A200083088B4201D38B00C01A524143088B427A
:101A300001D34B00C01A5241411A00D20146524113
:101A4000104670475DE0CA0F00D04942031000D332
:101A50004042534000229C4603098B422DD3030A87
:101A60008B4212D3FC22890112BA030A8B420CD397
:101A7000890192118B4208D3890192118B4204D3C0
:101A800089013AD0921100E08909C3098B4201D340
:101A9000CB01C01A524183098B4201D38B01C01A7A
:101AA000524143098B4201D34B01C01A52410309F1
:101AB0008B4201D30B01C01A5241C3088B4201D3A0
:101AC000CB00C01A524183088B4201D38B00C01A4D
:101AD0005241D9D243088B4201D34B00C01A524124
:101AE000411A00D20146634652415B10104601D3B1
:101AF0004042002B00D54942704763465B1000D33B
:101B0000404201B5002000F00BF802BD0029F8D0DA
:101B100003B5FFF715FF0EBC4243891A1847C046AC
:101B20007047C0469E2110B5C905041C00F05AFB41
:101B3000002803D1201C00F0BDFA10BD9E21201CFE
:101B4000C90500F039F900F0B5FA80231B069C4660
:101B50006044F2E7F0B55F4656464D464446F0B461
:101B600045024600C40F83B00F1C6D0A360EA34613
:101B700045D0FF2E25D080231B041D4300239A4609
:101B8000ED007F3E01937B025B0A98467800FB0FD5
:101B9000000E994640D0FF2838D0802342461B04CF
:101BA0001343DB00984600237F384A46019F3018D4
:101BB0006240411C1F430F2F69D87D4EBF00F6596C
:101BC000B746002D45D108230193063B9A46DAE734
:101BD00093465346022B2FD15B46012400251C401F
:101BE000FF236D02DB056D0AE4071D432543281C16
:101BF00003B03CBC90469946A246AB46F0BD002DD2
:101C00002CD104230193033B9A46BCE743465A4236
:101C100053410322D31AC8E742460123002AC4D005
:101C2000404600F0E9FA4246431F9A4076235B4261
:101C3000181A90460023B8E7032B00D1ADE0012B22
:101C400000D08CE05B4654461C40E4B200230025E3
:101C5000C7E70C230193093B9A4694E7281C00F040
:101C6000CBFA7626431F9D4000237642361A019315
:101C70009A4688E780250024ED03FF23B1E7454617
:101C8000CB469A46A5E7454693469A46A1E7434682
:101C90002C041B0C9C46230C444626041C1C360CAE
:101CA0002F0C7443351C66467D4373437743EB1812
:101CB000260C9E19B54203D980235B029C466744DB
:101CC00024043304240C1B199D016C1EA5419B0E9A
:101CD000360C2B43BD19AD011D432B0104D5012347
:101CE00068081D400543081C031C7F33002B2CDDB6
:101CF000690704D00F212940042900D004352901A7
:101D000003D52C4B1D40031C8033FE2B17DD012413
:101D1000FF231440002564E78020C003054209D05A
:101D20004346034206D1454605436D026D0A4C46C3
:101D3000FF2356E705436D026D0AFF2351E7012497
:101D4000AD016D0ADBB214404BE77E235B421B1AE8
:101D50001B2B07DD012400231440002541E7081C4C
:101D60005A46C1E79E30291C8540D940681E8541EE
:101D70000D436B0704D00F232B40042B00D00435F8
:101D80006B0104D5012401231440002529E7012417
:101D9000AD016D0A1440002323E78023DB031D43BC
:101DA00001245B466D0223401C1C6D0AFF2318E7CB
:101DB000182F0008FFFFFFF7F8B54A004302440060
:101DC0004D02C00F240E061C9B09120EC90FAD094F
:101DD000FF2A00D175E001277940884250D0A01A2F
:101DE000002800DC8FE0002A1ED1002D00D075E015
:101DF0005A0704D00F221A40042A00D0043380224C
:101E00000120D2041A403040002A32D00134FF2C85
:101E100000D184E09B015B0AE4B25B02E4055B0A4B
:101E20002343C0071843F8BDFF2CE1D08022D20421
:101E300015431B287ADD01255B1B5A015DD59B01EB
:101E40009F09381C00F0D8F905388740844269DCC6
:101E5000001B1F243A1C431C201ADA408740131C25
:101E60007C1EA74100243B43C2E7131E45D100233B
:101E70000020DB08FF2C28D05B025B0AE4B2CCE731
:101E8000A11A00295BDD002A2ED0FF2CB0D08022C1
:101E9000D20415431B2974DC2F1C2022CF40511A79
:101EA0008D40691E8D413D435B195A0125D5013492
:101EB000FF2C74D001217E4A194013405B080B436C
:101EC00096E7002D00D088E785E7002B27D08022F9
:101ED000D20313435B025B0AFF249EE7013800280C
:101EE000AAD0FF2CA5D183E7002D00D180E70139CE
:101EF0000029D9D0FF2CCDD17AE75A0700D079E755
:101F000001203040B5E7002825D1621CD2B2012A59
:101F100055DD5F1B7A012DD5EF1A0E1C91E7FF24CA
:101F200000237AE7624B241A3B4061E7291C2022F8
:101F3000C140101A8540681E85410D437CE7002989
:101F400046D1621CD1B201292BDDFF2A26D0EB1825
:101F50005B08141C4CE7002C15D0FF2A1AD08024F3
:101F6000E404404223431B284DDD0123EB1A141CDB
:101F70000E1C62E7002F00D063E70023002000243E
:101F800077E7012590E7002B39D0C0430028EDD03A
:101F9000FF2AE8D12B1CFF240E1C29E7FF24002375
:101FA00067E7002C5AD1002B7FD0002D00D11FE70E
:101FB0005B195A01A1D53E4A0134134018E7002CA1
:101FC00015D1002B2FD1002D5ED02B1C0E1C0FE73E
:101FD000002C21D1002B54D0C943002904D0FF2A62
:101FE0004CD01B2958DD01235B19141C5DE7002B25
:101FF00023D1002D4BD02B1C0E1CFF24F8E62B1CEC
:10200000141C0E1CF4E61E1C2024C640201A83401B
:10201000581E83413343A9E7FF2A2FD08024E404CC
:1020200049422343DDE7002D00D1E1E65A1B500170
:1020300000D41AE7EB1A0E1CDAE6FF24002D00D1BB
:10204000D6E68022DB08D203134204D0ED08154205
:1020500001D12B1C0E1CDB00FF24C9E6002B0DD088
:10206000FF24002D00D1C3E68022DB08D2031342F7
:10207000F1D0ED081542EED12B1CECE72B1CFF2410
:10208000B6E62B1C141CB3E6231C0020F1E68023CB
:1020900000209B04FF24ECE61F1C2024CF40611A83
:1020A0008B40591E8B413B439EE72B1CA0E6C0464C
:1020B000FFFFFFFB4202510A4200C30F120E002035
:1020C0007E2A0DDD9D2A0CDC802000040143952A28
:1020D0000ADC9620821AD1400A1C58424240D0188D
:1020E0007047034A9818FBE7963A91400A1CF4E7B8
:1020F000FFFFFF7F70B5041E39D0C50F00D04442EA
:10210000201C00F079F89E23261C1B1A962B07DC56
:10211000082801DD083884406402640AD8B21EE051
:10212000992B0ADD0522211C121AD1400A1C011C20
:102130001B318E40711E8E411643052801DD421F62
:1021400096400F4C3440720704D00F221640042EE4
:1021500000D0043462010ED4A401640AD8B264022F
:10216000C005640AED0704432C43201C70BD002504
:1021700000200024F3E7024B1C409F231B1AEBE7CF
:10218000FFFFFFFB8446081C6146FFE71FB500F018
:10219000C5F8002801D40021C8421FBD10B500F0C9
:1021A00049F84042013010BD10B500F0B7F80028E2
:1021B00001DB002010BD012010BDC04610B500F0AD
:1021C000ADF8002801DD002010BD012010BDC04683
:1021D00010B500F059F8002801DC002010BD0120E6
:1021E00010BDC04610B500F04FF8002801DA0020FD
:1021F00010BD012010BDC0461C2101231B049842C4
:1022000001D3000C10391B0A984201D3000A083987
:102210001B09984201D30009043902A2105C40183E
:102220007047C046040302020101010100000000E2
:1022300000000000430270B542004C005D0AC30F6D
:102240004802120E460A240EC90FFF2A05D0FF2CA1
:1022500008D00120A2420BD070BD0120002DFBD17F
:10226000FF2CF6D10120002EF6D10120A242F3D19D
:10227000B542F1D18B4205D0002AEDD1281C431E76
:102280009841E9E70020E7E7F0B543024D024A0034
:1022900044005E0A240EC30F6D0A120EC90FFF2CF4
:1022A0000DD0FF2A31D0002C0DD177427741002A82
:1022B00023D1002D21D10020002F0BD107E0002ECB
:1022C00028D1FF2A21D0002A05D08B4207D05842BE
:1022D00001231843F0BD002DF9D08B42F7D1944271
:1022E000F5DC04DBAE42F2D80020AE42F2D2584216
:1022F000434101205B421843ECE7002FE5D0484200
:102300004141012049420843E4E7002D02D1002C5D
:10231000CBD0DAE702204042DCE7C0464302F0B50A
:1023200042004C005E0AC30F4802120E450A240EFA
:10233000C90FFF2A0FD0FF2C1AD0002A10D17742E4
:102340007741002C29D0002F17D04842414101206D
:10235000494208430BE00220002E08D1FF2C07D091
:10236000002C0AD1002D08D1584201231843F0BD9A
:102370000220002DFBD1002AE1D08B42F4D1A242F1
:10238000F2DC04DBAE42EFD80020AE42EFD258427E
:10239000434101205B421843E9E7002DD3D10020DF
:1023A000002FE4D1E0E7C046931E10B5222B0FD8D2
:1023B0000A2A06D000230C1CC91800F07DFA201C44
:1023C00010BD0028F6DA2D2340420B702C3BF2E7BB
:1023D000002300200B70F3E708B5FFF7E5FF08BD09
:1023E0000123F0B546464F46944601229846012403
:1023F0000025C0B4524263198B420BD28618C75CC9
:10240000365DB7422DD29C1AA0461D1C01246319CB
:102410008B42F3D3444663461C6001239946023B3A
:10242000012400259846631999420DD9464686191C
:10243000C75C365DB7421CD944461C1BA1461D1C17
:10244000012463199942F1D84346501C0133834259
:1024500003D362464946181C11600CBC904699464D
:10246000F0BDB7420DD001232A1C98460135012446
:10247000C1E7B74209D00123A84699460135012496
:10248000D1E7444505D00134B5E74C4504D00134CB
:10249000C9E71D1C0124AEE71D1C0124C3E7C0468B
:1024A000F0B54D465F4656464446F0B4764C8146FC
:1024B000A544101C0E1C151C191C03AA1C1CFFF79C
:1024C0008FFF8346FFAA04AB143210C39342FCD1A2
:1024D000601E0023B446002C0AD00826EA5C02AF36
:1024E000C11A9200BF190133B950A342F5D1664613
:1024F000039B281CE9185A4600F066FA00286BD1A5
:102500000023191C631E98465A460123A2469B1AB3
:1025100044460027321C8846019346464B465644A3
:1025200098180021B21A00F00DFA00284BD1002EA5
:1025300049D04B4608219B19013B1B7802AA9B00FE
:102540005218D358002B0AD0002F04D0039A93427C
:1025500001D253469B1A98440027321CDDE73B1EEC
:102560005B4500D25B46A3420DD24846404402E0A0
:102570000133A34207D2E95CC25C9142F8D0019AD0
:1025800042449046E7E75B465A1E5F4500D374E03D
:1025900048464044A95C835C99426ED1A446041C21
:1025A00004E0E85CE15C884203D11A1C531E9742A8
:1025B000F7D364460137974261D85346039F321CD4
:1025C000B844DF1BA9E70020304B9D443CBC90463B
:1025D0009946A246AB46F0BD5B46E31A5B454AD33B
:1025E0000133039300235A469A4601339B1AA046AF
:1025F000321C5646671E01934346F4184B46002191
:102600009818A21A00F09EF90028DCD1002CDAD02C
:102610004B4608211B19013B1B7802AA9B0052184C
:10262000D358002B1FD14B469819BB450CD25B46A3
:10263000E95CC25C914204D018E0E95CC25C914262
:1026400014D10133BB42F8D35B46013B02D2BBE756
:10265000013BB9D3E95CC25C9142F9D0039B221CD7
:102660009C466644C8E7F618221CC5E7019A9219F1
:10267000D618221CC0E75B46B2E75A469AE74346A3
:102680004B44181CA0E7C046ECFBFFFF14040000FD
:10269000F0B55F4656464D464446F0B4037885B0E3
:1026A0008446002B20D00F783A1E00D1AAE00C1CE3
:1026B000061C012502E02278002A0BD09B1A5A4200
:1026C000534101361D4033780134002BF3D1237878
:1026D000002B0DD16046002D0CD005B03CBC9046BF
:1026E0009946A246AB46F0BD0B78002B00D189E09D
:1026F0000020F2E70D1C641A0130391CE04600F09E
:102700008BF9061EF4D0012CE7D043461819012797
:10271000864200D8871B1F2C06D9301C391C2A1C66
:10272000231CFFF7BDFED8E7211C03AA281CFFF7D6
:1027300057FE8046039B281CE918424600F044F9E6
:10274000002861D100239A464346013B191C4246AA
:1027500001238B469B1A3A1C371C261C54460193B6
:10276000A319B81800219A1A994600F0EBF800282E
:10277000BED14B46002BBBD05346C24500D2434688
:102780009E420DD9FA18E95C125D914205D031E004
:102790003A19E95CD25C91422CD101339E42F7D8C0
:1027A0005A46D04500D880E03B199C466346A95C58
:1027B0009B5C994279D1231C291C544665469A4654
:1027C000B4460E1C04E0F05CE95C884203D11A1C9C
:1027D000531EA242F7D85346351CA24666461C1C1F
:1027E00053460133934262D8039B4A46E418F31AD6
:1027F0009A46B5E7019A94466444E41800234A4691
:102800009A46ADE7604668E74346E31A434500D27F
:1028100043460133039300234246994601339B1AF2
:10282000191C012348465B424344B1469B463A1C6F
:102830008A46061C4B46371998180021BA1A00F030
:1028400081F8002800D053E7002F00D150E74B4615
:102850009819444510D9424648464344995DAA5CBC
:10286000434680198A4204D01BE0E95CC25C914275
:1028700017D101339C42F8D85A465B46013200D149
:102880002BE7E95CC25C914206D1013B00D224E710
:10289000E95CC25C9142F8D0039B3A1C9C466644BA
:1028A000C8E75644F6183A1CC4E7424698E7A146E2
:1028B000381C484411E7C046F0B5574645464E46D9
:1028C000E0B48AB090466A461D4B0D1C061C13CB23
:1028D00013C213CB13C213CB13C21B78EA46137077
:1028E0004346023B2F1C0024222B01D924E04C46F6
:1028F000631C301C41469946FFF718F853465B5C51
:10290000301C3B704146FEF78BFF0137061EEED1AF
:102910004B46E8540023002C07D0EA5C295DE954BB
:102920002A550133013CA342F7DB281C0AB01CBC2A
:1029300090469946A246F0BD2C700020F6E7C046AE
:10294000582F000870B5CCB2830737D0531E002A29
:102950001FD00278A2421DD0032505E0002B18D01D
:102960000278013BA24215D001302842F6D1032B58
:1029700011D8002B0DD00278A2420BD0421CC318F4
:1029800004E00132511E0978A14203D0101E984282
:10299000F7D1002070BDFF2529400D0229430D0409
:1029A000074E0D43026807496A405118914331426E
:1029B000DFD1043B0430032BF4D8DAE7131CD6E74D
:1029C00080808080FFFEFEFE30B5032A1ED9031CE6
:1029D0000B439B0711D004780D784B1C8A18AC422E
:1029E00006D016E00133591E04780D78AC4210D1A0
:1029F00001309342F6D1002030BD03680C68A34239
:102A000004D1043A04300431032AF6D8002AE2D172
:102A1000F1E7601BF0E7C046CAB270B5002A3DD0AE
:102A200083070ED00378002B5BD003249A4205D194
:102A300033E00378002B54D09A422ED0013020424C
:102A4000F7D1FF23056819402C1C0B0219430B0416
:102A50001943254B4C40E318A3431C1C224B234E27
:102A6000EB18AB43234333420DD10C1C04300568F3
:102A70001D4B6C40E318A3431C1C1B4BEB18AB43D2
:102A800023433342F1D00378002B04D129E00130F5
:102A90000378002B25D09A42F9D170BD83070AD064
:102AA00003780322002B03D1F7E70378002BF4D03F
:102AB00001301042F9D102680B4B0C49D3189343F3
:102AC0000B4206D104300268074BD31893430B42E4
:102AD000F8D00378002BE0D001300378002BFBD135
:102AE000DBE70020D9E7C046FFFEFEFE8080808045
:102AF0000000000000000000DFDF00000003000312
:102B00000000247E247E2400004689FF9162064650
:102B1000300C626040AC926A6480000000030000E8
:102B200000007E8100000000817E00004224FF241E
:102B3000420008083E08080000C0400000000808E5
:102B40000808080000C0C00000000060180600006F
:102B50003E4141413E0000427F40000046615149F4
:102B600046002241494936000F0808087F002745E2
:102B7000454539003E49494932000141310D0300C4
:102B8000364949493600064929190E0000363600F3
:102B90000000003616000000000814220000141483
:102BA000141400000022140800000201510906005C
:102BB0003E5965592E007C0A09097F007F49494921
:102BC00036003E41414122007F4141413E007F4964
:102BD000494949007F09090909003E4149493A002C
:102BE0007F0808087F0000417F41000020404040EE
:102BF0003F007F08142241007F40404040007F0298
:102C000004027F007F0204087F003E4141413E00F4
:102C10007F09090906003E4151613E007F1929499B
:102C2000060026494949320001017F0101003F4069
:102C300040403F001F2040201F003F403F403F00DA
:102C4000710A040A7100074848483F00615149452C
:102C50004300007F41410000000618600000004171
:102C6000417F000004020102040080808080808097
:102C700000000003000080F0F87C1E0E0E0E0E0E09
:102C80001E7CF8F08000FFFFFF0000000000000045
:102C90000000FFFFFF00010F1F3E78707070707022
:102CA000783E1F0F01000000C0C0E07038FCFEFE3F
:102CB00000000000000000000100000000FFFFFF16
:102CC000000000000000000000000000007F7F7F87
:102CD00000000000000060787C1C1E0E0E0E0E1E10
:102CE0003CFCF8E00000000000000080C0E0F0784C
:102CF0003C1F0703000060787C7E777371707070F2
:102D000070707070000060707C3C1E0E0E0E0E0E17
:102D10001CFCF8F000000000000000000E0E0E0F7A
:102D20001F3FF9F8E000061E3E3C7870707070702E
:102D3000383C1F0F030000000000000080E0F07826
:102D4000FCFEFE000000C0E0F0B89E8F878180800E
:102D5000FFFFFF8080000303030303030303030358
:102D60007F7F7F03030000F0FEFE0E0E0E0E0E0EA0
:102D70000E0E0E0E00000E0F0F0D060707070707B9
:102D80000F1EFCF8F000061E3E3C787070707070EC
:102D9000383C1F0F030000E0F8F83C1E0E0E0E0E2C
:102DA0001E3C7C786000FFFFFF381C0C0E0E0E0EE0
:102DB0001E3CFCF8E000010F1F3C38707070707012
:102DC000783C1F0F0700000E0E0E0E0E0E0E0E8E1C
:102DD000CEEE7E1E0E00000000000080E0F87E1F98
:102DE00003010000000000000000787F7F07000062
:102DF00000000000000000F0F8FC1E0E0E0E0E0E8B
:102E00001CFCF8F00000C0F0F93B1F0E0E0E0E0E79
:102E10001F3BF9F0C000070F1F3C78707070707096
:102E2000783C1F0F0700E0F0F83C1E0E0E0E0E0E51
:102E30001C3CF8F08000071F3F3C787070707030C9
:102E4000381CFFFFFF00061E3E3C787070707078E3
:102E5000381F1F07000030787C7C7E7D7D7D7932B5
:102E600024184643533B005357533B00110A040AAE
:102E700011C020A000F008E412CA2AAA4F4B004556
:102E800052524F52004641494C0041542B43574A3D
:102E900041503F0041540041542B43574D4F44454E
:102EA0003D310041542B4349504D55583D3100416F
:102EB000542B43574A41503D2253686F64616E2240
:102EC0002C2273797374656D5F73686F636B220076
:102ED00041542B4349505345525645523D312C35B0
:102EE0003537370041542B525354002F2F2F204990
:102EF0006E6974202F2F2F0041542B4349504150AD
:102F00003F005346433B0010307C3010080C3E0C11
:102F1000086D2F73000000008E1C0008861C00083E
:102F2000861C00087E1C0008D01B0008D01B00086F
:102F3000741C00087E1C0008D01B0008741C0008CC
:102F4000D01B00087E1C0008D21B0008D21B000802
:102F5000D21B0008181D00083031323334353637A3
:102F600038396162636465666768696A6B6C6D6E47
:102F70006F707172737475767778797A00000000DB
:102F8000000000000102030401020304060708090F
:102F90001600F30214585800E10004004900000034
:0400000508000000EF
:00000001FF
